:020000040800F2
:10000000F0080020010100084D1300081D1200082F
:100010001D13000899010008F117000800000000F6
:100020000000000000000000000000005113000864
:10003000D3010008000000004F130008531300080C
:100040001B0100081B0100081B0100081B01000820
:100050001B0100081B0100081B0100081B01000810
:100060001B0100081B0100081B0100081B01000800
:100070001B0100081B0100081B0100089D0100086E
:100080001B0100081B0100081B0100081B010008E0
:100090001B0100081B0100081B0100081B010008D0
:1000A0001B0100081B0100081B0100081B010008C0
:1000B0001B0100081B0100081B0100081B010008B0
:1000C0001B0100081B0100081B0100081B010008A0
:1000D0001B010008D91700081B0100081B010008BC
:1000E0001B0100081B0100081B010008DFF80CD0F1
:1000F00000F040F800480047051A0008F00800200A
:100100000648804706480047FEE7FEE7FEE7FEE7B1
:10011000FEE7FEE7FEE7FEE7FEE7FEE7A5130008C1
:10012000ED000008D2B201E000F8012B491EFBD21D
:1001300070470022F6E710B513460A4604461946F2
:10014000FFF7F0FF204610BD30B50B4601460020FA
:100150002022012409E021FA02F59D4205D303FA89
:1001600002F5491B04FA02F52844151EA2F101020A
:10017000F1DC30BD064C074D06E0E06840F00103BD
:1001800094E8070098471034AC42F6D3FFF7B2FF6B
:10019000C01D0008E01D0008FEE70000014800F057
:1001A00089B80000A804002030B590F84050012420
:1001B000AC40C56B6C60046863604368102B0368D7
:1001C00003D099600068C26030BD9A600068C16069
:1001D00030BD7047704710B590F8211000220229F9
:1001E00005D00421816380F82020012010BD016822
:1001F0000B6823F00E030B6001680B6823F001030A
:100200000B6090F84030C46B012101FA03F3636086
:1002100080F8211080F82020104610BD10B590F80D
:1002200021100024022903D00421816301243DE030
:1002300001680A6822F00E020A6001680A6822F06A
:1002400001020A601A4A0168914201D1012121E0AC
:10025000174A1432914201D110211BE0144A28326E
:10026000914201D1891515E0114A3C32914201D1E8
:1002700089140FE00E4A5032914202D14FF480317E
:1002800008E00B4A6432914202D14FF4801101E040
:100290004FF08071064A083A5160012180F8211020
:1002A000002180F82010416B01B18847204610BD25
:1002B000080002402DE9F05FC16B0C6801680B6813
:1002C000D0F840C0042202FA0CF2494DDFF824A114
:1002D000494E4A4FDFF828B1DFF828E122422CD0FE
:1002E0005A072AD50A68920603D40A6822F0040243
:1002F0000A600168A94201D1042219E0514501D1E7
:10030000402215E0B14202D14FF4806210E0B942C0
:1003100002D14FF480420BE0594502D14FF48022C4
:1003200006E0714502D14FF4800201E04FF0806297
:100330002F4908394A60C16A3BE04FF0020808FAC9
:100340000CF818EA040F4FF000094FF0010235D005
:100350005FEA837832D50B689B0605D40B6823F0DF
:100360000A030B6080F821200168A94201D1022212
:1003700019E0514501D1202215E0B14202D14FF4DC
:10038000007210E0B94202D14FF400520BE059451F
:1003900002D14FF4003206E0714502D14FF4001251
:1003A00001E04FF00072124908394A6080F820904D
:1003B000816A00291AD0BDE8F05F0847082505FAD0
:1003C0000CF5254212D01B0710D50B6823F00E0345
:1003D0000B6090F84010C36B02FA01F15960826320
:1003E00080F8212080F82090016BE2E7BDE8F09FC3
:1003F000080002401C00024030000240440002405D
:10040000580002406C00024030B528B308C81349B8
:1004100014221944B1FBF2F18900C16310498163D0
:10042000022141771A6843F6F0718A43D0E900143B
:100430002143D0E902452C43214304692143446907
:100440002143846921431143196000214163012242
:1004500042770177084630BD012030BDF8FFFDBF6F
:100460000000024070B5044690F8200000250128E5
:100470000CD0012084F8200094F821600020012E87
:1004800006D084F820000225284670BD022070BDE9
:10049000022684F82160A0632068066826F0010621
:1004A00006602046FFF780FEE06A002820680168A9
:1004B00002D041F00E0106E021F004010160206845
:1004C000016841F00A0101602068016841F0010102
:1004D0000160D9E770B5044600F004F90546601CD8
:1004E00002D004480078044400F0FCF8401BA0420D
:1004F000FAD370BD000000202DE9F84FDFF8B89165
:100500000024A9F1040B23460F2709F1040AABF1DB
:10051000040EC9E00125A5402A40AA427DD1674EBC
:10052000D1F804C0ACEB0608B44532D014DCBCF101
:10053000030F3AD009DCBCF1000F2AD0BCF1010F47
:100540001CD0BCF1020F31D11DE0BCF1110F17D04E
:10055000BCF1120F2AD119E0B8F5881F19D006DCBA
:10056000B8F5803F15D0B8F5801F1FD111E0B8F560
:10057000001F0ED0B8F5041F18D10AE0CB6815E0B3
:10058000CB681B1D12E0CB6808330FE0CB680C333F
:100590000CE08B682BB1012B4FF0080303D04561B1
:1005A00004E0042302E0056100E00023FF2A01D8F3
:1005B000064601E000F104064FEA840501D9A5F1E1
:1005C0002005D6F8008007FA05FC28EA0C0803FA93
:1005D00005F548EA0508C6F800804D68ED0062D5CB
:1005E000374DAE6946F00106AE61AD6924F00306F1
:1005F00005F001050095334D06EB050CDCF80850BD
:10060000A607360F07FA06F825EA0805DFF8B880CE
:10061000404503D14FF0000817E044E0DFF8AC801C
:10062000404502D14FF001080FE0DFF8A4804045BB
:1006300002D14FF0020808E0DFF89880404502D16F
:100640004FF0030801E04FF0040808FA06F848EA02
:100650000508CCF808804D68D9F80060ED024D46D9
:1006600001D5164300E096432E604D68DAF800602D
:10067000AD02554601D5164300E096432E604D6805
:10068000DBF80060AD035D4601D5164300E09643FC
:100690002E604D68DEF80060ED03754601D5164307
:1006A00000E096432E60641C0D682A46E5407FF406
:1006B00031AFBDE8F88F00000804014000001110C0
:1006C000001002400000014000080140000C014001
:1006D00000100140001401400AB101617047090493
:1006E000FBE7000001488068704700000000002020
:1006F0000248816802781144816070470000002040
:10070000074810B5016841F010010160032000F0B6
:1007100075F8002000F006F800F024F8002010BD65
:100720000020024070B50D4D04464FF47A712878D0
:10073000B1FBF0F00A490968B1FBF0F000F0DCFA17
:1007400048B9102C07D200222146501E00F036F87E
:1007500000206C6070BD012070BD00000000002012
:100760000C0000200C4808B5816941F0010181614D
:10077000816901F001010091C16941F08051C161BD
:10078000C06900F0805000900448416821F0E061A9
:1007900041F00071416008BD0010024000000140BE
:1007A000002809DB00F01F02012191404009800070
:1007B00000F1E020C0F8001170470000F0B40E4BCB
:1007C0001B680C46C3F30223C3F10705042D00D9AF
:1007D0000425191D072901D2002300E0DB1E012694
:1007E00006FA05F1491E214099409E40761E1640AA
:1007F0003143F0BC01F030B80CED00E0064900F0E8
:10080000070208684FF6FF03184040EA0220034A37
:1008100010430860704700000CED00E00000FA058E
:100820002DE9F0470F46050061D0434E306800F0D7
:100830000700B84209D2306820F007003843306022
:10084000306800F00700B84251D128683B4C81075E
:1008500012D5400703D5606840F4E06060602878F6
:10086000000703D5606840F4605060606068A96864
:1008700020F0F000084360602878C00728D068683E
:10088000012810D02168022810D0890700292EDA0B
:10089000616821F0030101436160FFF723FF804697
:1008A00041F288390DE021688903EFE78901EDE71E
:1008B000FFF718FFA0EB0801494502D90320BDE866
:1008C000F0876068696800F00C00B0EB810FEFD131
:1008D000306800F00700B8420BD9306820F00700FC
:1008E00038433060306800F00700B84201D0012082
:1008F000E5E72878400705D56068E96820F4E060FE
:10090000084360602878000706D56068296920F4EC
:10091000605040EAC100606000F038F86168084A41
:10092000C1F30311515CC8400649086006480068DD
:10093000FFF7F8FE0020C2E700200240001002404E
:10094000A61D00080C0000200400002004480549F2
:1009500000684968044AC1F30221515CC8407047ED
:100960000C00002000100240B61D00080448054994
:1009700000684968044AC1F3C221515CC84070470D
:100980000C00002000100240B61D00080E4A5168FD
:100990000E4801F00C03042B11D0082B0FD10C488A
:1009A000C1F38343C903C05C0AD55168084AC1F347
:1009B0004041921E515C054A5043B0FBF1F0704734
:1009C00004494843704700000010024000127A00BA
:1009D000961D000800093D002DE9F84F040070D075
:1009E0002078C04DC00749D06868C0F38100012855
:1009F00007D06868C0F38100022809D16868C00385
:100A000006D52868800339D560680028E7D035E02E
:100A10006068B0F5803F0BD010B1B0F5A02F11D0B9
:100A2000286820F480302860286820F4802002E0C4
:100A3000286840F480302860606890B1FFF752FE6B
:100A400006460AE0286840F480202860F0E700BFEE
:100A5000FFF748FE801B642873D828688003F7D509
:100A60000CE0FFF73FFE064605E000BFFFF73AFE49
:100A7000801B6428F0D828688003F7D420789A4E29
:100A800080074FF001094FF0000839D5686810F071
:100A90000C0F07D06868C0F38100022809D168688C
:100AA000C00306D42868800714D52069012808D11E
:100AB00010E02069B0B1C6F80090FFF713FE0746BA
:100AC00005E00AE1FFF70EFEC01B0228C4D8286823
:100AD0008007F7D52868616920F0F80040EAC10076
:100AE00028600DE0C6F80080FFF7FCFD074604E033
:100AF000FFF7F8FDC01B022823D828688007F7D429
:100B0000207800072CD57948A169D9B1C0F80090A8
:100B1000FFF7E8FD074604E0FFF7E4FDC01B0228ED
:100B20000FD8686A8007F7D571484FF4FA5100680A
:100B3000B0FBF1F0009000BF0098411E0091FAD286
:100B40000EE080E0C0F80080FFF7CCFD074604E02F
:100B5000FFF7C8FDC01B022875D8686A8007F7D464
:100B60002078400760D5E8690027C00008D4E8690C
:100B700040F08050E861E869012700F08050009063
:100B80005C480168C90513D40168834641F480714B
:100B90000160FFF7A7FD824606E000BFFFF7A2FD58
:100BA000A0EB0A0064284ED8DBF80000C005F5D59C
:100BB000E06801280AD008B1052813D0286A20F07F
:100BC00001002862286A20F0040002E0286A40F050
:100BD00001002862E06841F2883B98B1FFF782FD8E
:100BE00082460BE0286A40F004002862EEE700BF6E
:100BF000FFF778FDA0EB0A0159455AD8286A80070B
:100C0000F6D50CE0FFF76EFD824605E0FFF76AFDC2
:100C1000A0EB0A0159454CD8286A8007F6D41FB1C9
:100C2000E86920F08050E861E06988B36968C1F341
:100C30008101022944D00228C6F8608004D0FFF761
:100C400051FD044638E034E0FFF74CFD074604E070
:100C5000FFF748FDC01B02282BD828688001F7D475
:100C6000206AB0F5803F05D16868A16820F40030A3
:100C700008436860D4E908010843696821F47411E5
:100C800008436860C6F86090FFF72CFD044606E054
:100C900025E000BFFFF726FD001B022809D82868C1
:100CA0008001F7D51BE000BFFFF71CFD001B0228E9
:100CB00002D90320BDE8F88F28688001F4D40EE043
:100CC0000128F7D06868226A00F48031914204D18B
:100CD000616A00F47010884201D00120EAE7002028
:100CE000E8E7000000100240000042428004424257
:100CF0000C0000200070004010B5401EB0F1807F55
:100D000001D3012010BD4FF0E02460610F21601776
:100D100000F0A2FD0020A06107202061002010BD8E
:100D2000704710B504460068406994F84110C0F35C
:100D3000C010212911D180B12068143050E8001F63
:100D400021F0800140E80012002AF5D1A06B08B123
:100D5000FFF741FA204600F0EFFB2068406994F865
:100D60004210C0F38010222911D180B120681430C4
:100D700050E8001F21F0400140E80012002AF5D1A0
:100D8000E06B08B1FFF727FA204600F0AEFB002029
:100D900010BD7047F8B5016804460868CA684B6919
:100DA00010F00F0F4FF0000559D003F0010602F4C8
:100DB0009077374365D0C10705D0D10503D5616C65
:100DC00041F001016164410705D5D90703D0616C89
:100DD00041F002016164810705D5D90703D0616C38
:100DE00041F004016164010707D502F0200131439D
:100DF00003D0616C41F008016164616C00293AD054
:100E0000800604D5900602D5204600F0A3FB20689A
:100E10004069616CC0F38010090700D460B32046BC
:100E200000F063FB20684069400621D5206814303B
:100E300050E8001F21F0400140E80012002AF5D1DF
:100E4000E06BA8B16D494163E06BFFF7E7F900285B
:100E500011D0E06B416B01B0BDE8F040084783065C
:100E60000FD593060DD52046BDE8F84000F072BBC3
:100E70002046FFF78EFFF8BD2046FFF78AFF656426
:100E8000F8BD266B2023012E7CD1C6067AD5D60666
:100E900078D508684868009048694FF00206400617
:100EA00040D5E16B086840680004000CE8D0A28DD2
:100EB0008242E5D9E085886920282DD020680C3051
:100EC00050E8001F21F4807140E80012002AF5D19B
:100ED0002068143050E8001F21F0010140E80012A2
:100EE000002AF5D12068143050E8001F21F040019D
:100EF00040E80012002AF5D184F8423025632068CA
:100F00000C3050E8001F21F0100140E80012002AC8
:100F1000F5D1E06BFFF75FF96663A08DE18D401AB4
:100F200081B22AE0A08DE18D401A81B2E08D0028C7
:100F3000A6D00029A4D022680C3252E8000F20F479
:100F4000907042E80007002FF5D12068143050E877
:100F5000002F22F0010240E80027002FF5D184F88D
:100F60004230256320680C3050E8002F22F0100238
:100F700040E80023002BF5D166632046FFF7D0FE42
:100F8000F8BDFFE705062BD5150629D594F84100D5
:100F90002128F5D1A068B0F5805F01D12069B0B1FA
:100FA000206A411C2162216800784860E08C401E64
:100FB0000004000CE084E3D12068C16821F08001C6
:100FC000C1602068C16841F04001C160D8E7206A73
:100FD0000088C0F308004860206A801C2062E5E7B2
:100FE0004006CDD55006CBD5CA68204622F0400237
:100FF000CA6084F8413000F010F9C1E7ED13000831
:1010000070B5040004D094F84100002510B106E04A
:10101000012070BD84F84050204600F023F82420C1
:1010200084F841002068C16821F40051C160204665
:1010300000F0F2FA2068016921F490410161206812
:10104000416921F02A0141612068C16841F40051E1
:10105000C1606564202084F8410084F84200656323
:10106000002070BDF0B585B0002400940194029476
:1010700003940646344F0368344902200322344D5A
:10108000BB423CD18B6943F480438B618B6903F491
:10109000804304938B6943F004038B618969039255
:1010A00001F0040104910102CDE9001069462846CF
:1010B000FFF722FA2815CDE9000469462846029474
:1010C000FFF71AFA244D2348C5E900048020C5E93A
:1010D00002402C616C61AC612846EC61FFF794F929
:1010E00008B1FFF777F8F5630022114625206E62FC
:1010F000FFF764FB2520FFF753FB05B0F0BD174E4B
:10110000B342FAD1CB6943F40033CB61CB6903F42A
:10111000003304938B6943F004038B618969039264
:1011200001F0040104910421CDE90010694628462C
:10113000FFF7E2F90820CDE9000469462846029449
:10114000FFF7DAF9D9E7000000380140001002404B
:101150000008014058000240A8040020004400405C
:1011600090F84230202B01D00220704721B11AB1F3
:101170000023036300F0ACBA01207047704770474A
:101180002DE9F843044690F841001F4616460D46E7
:10119000202802D00220BDE8F8837DB176B100207E
:1011A0006064212084F84100FFF79CFAA684804601
:1011B000E684A068B0F5805F02D003E00120EAE792
:1011C000206910B12E4600250EE000260CE080219B
:1011D000204600F0C5FAA0B9AEB116F8010B21689F
:1011E0004860E08C401EE084E08C43464FF00002F3
:1011F00000970028EBD14FF04001204600F0B0FAF4
:1012000030B10320C7E735F8020BC0F30800E6E76A
:10121000202084F841000020BDE77047FEE7000071
:10122000094808B5416941F0010141614069002266
:1012300000F00100009011460F20FFF7BFFABDE853
:1012400008400F20FFF7ACBA0010024070B586B01E
:10125000002414480094019402940394816941F09D
:1012600020018161816901F020010491816941F0CF
:10127000040181618069012200F004000A4E150218
:10128000049029463046FFF727FA01200095CDE962
:1012900001040220039069463046FFF72DF906B09D
:1012A00070BD000000100240000801400C4810B55D
:1012B0000A4901604FF416514160002181600C22FF
:1012C000C160C0E904128161C161FFF799FE002885
:1012D00003D0BDE81040FEF77DBF10BD00380140CF
:1012E000180400200C4810B50A4901604FF4E131A0
:1012F0004160002181600C22C160C0E9041281615B
:10130000C161FFF77DFE002803D0BDE81040FEF765
:1013100061BF10BD0044004060040020FEE70000F3
:1013200070B5094DFF231A4605F5807606E000BF2B
:1013300010F8014B54402A5D5A40335D491E89B272
:10134000F6D242EA032070BD741B00087047704754
:101350007047FFF7CDB930B58FB028216846FEF74A
:10136000E8FE14210AA8FEF7E4FE01210804CDE9F5
:1013700000100024029402250491CDE907504FF497
:10138000E01009906846FFF727FB0F20CDE90A051A
:101390006802CDE90C4002210AA80E94FFF740FA3A
:1013A0000FB030BD0D48016841F001010160416896
:1013B0000B4A1140416001680A4A1140016001680E
:1013C00021F480210160416821F4FE0141604FF465
:1013D0001F0181600449C00308607047001002408B
:1013E0000000FFF8FFFFF6FE08ED00E010B5406AD0
:1013F0000021C185C184FFF7CCFC10BD70B5446AE3
:101400002068406994F84110C0F3C01000252129DC
:1014100004D118B1E584204600F08EF820684069B8
:1014200094F84210C0F38010222904D118B1E58548
:10143000204600F05AF8606C40F0100060642046CE
:10144000FFF7A7FC70BD10B50146406A096809683E
:101450004FF0000289062ED4C28501680C3151E894
:10146000003F23F4807341E80034002CF5D101687B
:10147000143151E8003F23F0010341E80034002C0F
:10148000F5D10168143151E8003F23F0400341E8F1
:101490000034002CF5D1202180F84210016B012985
:1014A00009D101680C3151E8003F23F0100341E8F5
:1014B0000034002CF5D14263016B012902D0FFF703
:1014C0005DFE10BD818DFFF72BFC10BD10B5406A8D
:1014D00001214163016B012902D0FFF750FE10BDCD
:1014E000818D4908FFF71CFC10BD01680C3151E8E3
:1014F000002F22F4907241E80023002BF5D10168FF
:10150000143151E8002F22F0010241E80023002BA2
:10151000F5D1016B012909D101680C3151E8002F87
:1015200022F0100241E80023002BF5D1202180F8A1
:10153000421000210163704701680C3151E8002F0F
:1015400022F0C00241E80023002BF5D1202180F8D1
:101550004110704708B590F84210222901D00220AE
:1015600008BD82684FF480539A4201D1016921B1CC
:10157000816A9A421BD04AB10AE00268816A5268C5
:10158000C2F308020A80816A891C08E0026972B10C
:101590000268526802F07F020A70816A491C816207
:1015A000C18D491E0904090CC18503D01BE00268E6
:1015B0005268F1E70168CA6822F02002CA60016837
:1015C000CA6822F48072CA6001684A6922F0010286
:1015D0004A61202180F8421000214163026B012AF8
:1015E00003D0FFF7CBFD002008BD016301680C317B
:1015F00051E8002F22F0100241E80023002BF5D122
:1016000001680A68D20602D50A6849680091818D8E
:10161000FFF786FBE7E7000070B504460068016944
:10162000E26821F44051114301612169A068084337
:10163000616908432168CA6841F20C639A43024316
:10164000CA6020684169A26921F440711143416177
:101650001E492068884202D1FFF788F901E0FFF7B0
:1016600075F900EBC00101EB001260686421800095
:10167000B2FBF0F3B3FBF1F36FF018067343B2FB68
:10168000F0F5B2FBF0F605EB8305322303EB05150D
:10169000B5FBF1F5B6FBF1F605F0F00505EB061527
:1016A000B2FBF0F6B2FBF0F0B0FBF1F06FF0180215
:1016B000504306EB800003EB0010B0FBF1F0216813
:1016C00000F00F002844886070BD00000038014021
:1016D00038B5816204468285002013466064222268
:1016E00084F84220E56B1B4AAA62E56B1A4AEA625B
:1016F000E56B1A4A2A63E26B50630A462168E06B85
:10170000091DFEF7AFFE206801684068009020695F
:1017100048B120680C3050E8001F41F4807140E867
:101720000012002AF5D12068143050E8001F41F063
:10173000010140E80012002AF5D12068143050E879
:10174000001F41F0400140E80012002AF5D10020BE
:1017500038BD000047140008CD140008FD13000830
:101760002DE9F041984617460E460446069D27E0AF
:10177000681C25D02DB1FEF7B5FFA0EB0800A842EC
:101780001ED920680C3050E8001F21F4D07140E8C9
:101790000012002AF5D12068143050E8001F21F013
:1017A000010140E80012002AF5D1202084F8410010
:1017B00084F84200002084F840000320BDE8F08156
:1017C0002068006836EA000004D00020B842CFD07C
:1017D0000020F3E70120F9E710B5044800F00AF80B
:1017E000BDE810400148FFF7D5BA000018040020FA
:1017F000FEE7000038B500680068C043C00618D492
:101800000C4C20680168406800902046FFF789FA78
:10181000E06B00684068A4F20441C0F58060488035
:10182000012001F8040B82022046BDE83840FFF792
:1018300097BC38BD180400200FB4054B10B503A9A0
:10184000044A029800F028F810BC5DF814FB000070
:10185000ED190008100000200907090E002804DB1C
:1018600000F1E02080F80014704700F00F0000F154
:10187000E02080F8141D704702E008C8121F08C15C
:10188000002AFAD170477047002001E001C1121F01
:10189000002AFBD1704700002DE9FF4F89B09B461D
:1018A0000446002506E025280BD05A460B999047A0
:1018B000641C6D1C20780028F5D10DB02846BDE8C9
:1018C000F08F0027B8460122474900E0074314F88B
:1018D000013F203B02FA03F00842F7D120782E287E
:1018E00019D114F8010F47F004072A280ED06FF021
:1018F0002F022078A0F1300109290CD808EB8801CB
:1019000002EB410100EB0108641CF2E70A98641C39
:1019100050F8048B0A9020780028CED0642808D094
:10192000692806D075281ED05A460B9990476D1C21
:1019300058E00A994FF00A0901C90A91002802DA11
:1019400040422D2102E0390504D52B218DF82010CD
:10195000012103E0F90704D02021F7E78A4608AE09
:101960000DE00021FAE70A994FF00A0901C90A912E
:10197000F7E74946FEF7E8FB303106F8011D00287D
:10198000F7D1ADEB060000F12009780701D44FF044
:101990000108C84502DDA8EB090000E000208046F0
:1019A000002706E008A85A46C05D0B9990476D1CB9
:1019B0007F1C5745F6DB04E030205A460B999047D0
:1019C0006D1CB8F10001A8F10108F5DC05E016F87E
:1019D000010B5A460B9990476D1CB9F10001A9F112
:1019E0000109F4DC641C65E70928010013B54FF612
:1019F000FF73012269460248FFF7C2FB00981CBD35
:101A00006004002088B03EA0D0E90010CDE90510A8
:101A1000FEF776FEFFF79FFCFFF718FCFFF700FCD0
:101A2000FFF744FCFFF75EFC374C4FF48062211D4A
:101A30003648FFF795FB35480068C16841F0100152
:101A4000C16033A0FFF7F8FE3D4F4FF480780025CA
:101A500025700122464641463846FEF73DFE0A23E0
:101A6000082205A92948FFF78BFB0022314638469A
:101A7000FEF732FE002607E00120FEF72BFD304680
:101A8000761CF6B2642803D82078C007F4D002E0B0
:101A90002078C0072BD06088152801D029A020E02D
:101AA0001321201DFFF73CFCE17DC2B291421CD105
:101AB000217EB1EB102F18D100260DF1040900BFD3
:101AC00004EB4600017AC07901EB002081B229F8CD
:101AD000161020A0FFF7B0FE761CF6B2082EEFD34A
:101AE00016A0FFF7A9FE257004E01BA0F9E71DA0D2
:101AF000FFF7A2FE4FF47A70FEF7ECFCA8E70000B7
:101B0000010400000008F1CC14000020180400209B
:101B10002A2A2A204D6F6462757320525455204141
:101B20006E616C6F6720496E7075742054657374B4
:101B30002050726F6772616D202A2A2A0D0A0000F8
:101B4000000801404C656E677468204552522021A0
:101B5000210D0A00256420004352432045525221A2
:101B60002100000054494D454F55542021210D0AB4
:101B70000000000000C1814001C0804101C08041DF
:101B800000C1814001C0804100C1814000C181404D
:101B900001C0804101C0804100C1814000C181403D
:101BA00001C0804100C1814001C0804101C080412D
:101BB00000C1814001C0804100C1814000C181401D
:101BC00001C0804100C1814001C0804101C080410D
:101BD00000C1814000C1814001C0804101C08041FD
:101BE00000C1814001C0804100C1814000C18140ED
:101BF00001C0804101C0804100C1814000C18140DD
:101C000001C0804100C1814001C0804101C08041CC
:101C100000C1814000C1814001C0804101C08041BC
:101C200000C1814001C0804100C1814000C18140AC
:101C300001C0804100C1814001C0804101C080419C
:101C400000C1814001C0804100C1814000C181408C
:101C500001C0804101C0804100C1814000C181407C
:101C600001C0804100C1814001C0804101C080416C
:101C700000C1814000C0C101C30302C2C60607C73C
:101C800005C5C404CC0C0DCD0FCFCE0E0ACACB0BAC
:101C9000C90908C8D81819D91BDBDA1A1EDEDF1FDC
:101CA000DD1D1CDC14D4D515D71716D6D21213D3CC
:101CB00011D1D010F03031F133F3F23236F6F7377C
:101CC000F53534F43CFCFD3DFF3F3EFEFA3A3BFB6C
:101CD00039F9F83828E8E929EB2B2AEAEE2E2FEF1C
:101CE0002DEDEC2CE42425E527E7E62622E2E3238C
:101CF000E12120E0A06061A163A3A26266A6A767BC
:101D0000A56564A46CACAD6DAF6F6EAEAA6A6BAB2B
:101D100069A9A86878B8B979BB7B7ABABE7E7FBF5B
:101D20007DBDBC7CB47475B577B7B67672B2B3734B
:101D3000B17170B0509091519353529296565797FB
:101D4000559594549C5C5D9D5F9F9E5E5A9A9B5BEB
:101D500099595898884849894B8B8A4A4E8E8F4F9B
:101D60008D4D4C8C4484854587474686824243830B
:101D700041818040000001CC01D8001401F0003CFA
:101D8000002801E401A0006C007801B40050019C1F
:101D900001880044010202030405060708090A0B32
:101DA0000C0D0E0F101000000000000000000102DA
:101DB00003040607080900000000010203040000F4
:101DC000E01D000800000020140000007818000842
:101DD000F41D000814000020DC080000881800082A
:101DE0000100000010000000000000000024F400CA
:041DF00000000000EF
:04000005080000ED02
:00000001FF
